:020000040800F2
:1000000080070020910100081D070008BF060008B6
:1000100019070008310500087510000800000000ED
:10002000000000000000000000000000BD0B000800
:100030009505000800000000850A0008E10D000891
:10004000AB010008AB010008AB010008AB010008E0
:10005000AB010008AB010008AB010008AB010008D0
:10006000AB010008AB010008AB010008AB010008C0
:10007000AB010008AB010008AB010008AB010008B0
:10008000AB010008AB010008AB010008AB010008A0
:10009000AB010008AB010008AB010008AB01000890
:1000A000AB010008AB010008AB010008AB01000880
:1000B000AB010008AB010008AB010008AB01000870
:1000C000AB010008AB010008AB010008AB01000860
:1000D000AB010008AB010008450E0008AB010008A9
:1000E000AB010008AB010008AB01000800F002F80A
:1000F00000F03EF80AA090E8000C82448344AAF184
:100100000107DA4501D100F033F8AFF2090EBAE881
:100110000F0013F0010F18BFFB1A43F0010318473B
:100120005C1800007C180000103A24BF78C878C121
:10013000FAD8520724BF30C830C144BF04680C60ED
:10014000704700000023002400250026103A28BF35
:1001500078C1FBD8520728BF30C148BF0B60704739
:100160001FB59DE8030000F0DDF81FBD10B510BD00
:1001700000F05CF91146FFF7F3FF00F0ADFF00F06F
:100180007AF903B4FFF7F2FF03BC00F0ABF900000B
:100190000948804709480047FEE7FEE7FEE7FEE71B
:1001A000FEE7FEE7FEE7FEE7FEE7FEE70448054957
:1001B000054A064B70470000E50D0008ED000008F9
:1001C00080010020800700208003002080030020A1
:1001D00070B5064600F08AF8056806F10B0020F0BD
:1001E0000704B4429CBF002070BD2B466A68BAB1B8
:1001F0001068A04210D304F1080188423CBF506847
:10020000586007D35168101941601168091B0160DB
:1002100058601460101D70BD13465268002AE7D163
:100220002146284600F06AF80028DED170BD70B57E
:100230000446051F00F05AF80068002C14BF4468FB
:1002400070BD002C18BFAC423CBF20466468F8D398
:1002500001680A18AA4218BF456003D12A680546FA
:100260001144016028684119A1421CBF6C6070BD37
:100270006168696021680844286070BD30B5054632
:100280000B462A4613F8014B12F8010B08B1A042A5
:10029000F8D01CB1002802D06D1CF1E7284630BD13
:1002A0004FF000020429C0F0128010F0030C00F09F
:1002B0007180CCF1040CBCF1020F18BF00F8012BC7
:1002C000A8BF20F8022BA1EB0C0100F063B85FEA95
:1002D000C17C24BF00F8012B00F8012B48BF00F8B7
:1002E000012B704770477047704700000048704707
:1002F00028010020704770477047704738B50446A2
:100300000A4600206946AFF30080002808BF38BDC8
:1003100002460099204600F067F8012038BD012010
:1003200000F07CB8F8B5AFF30080054600200C461D
:10033000102000BF0646A819A0420DD932466946D2
:100340000020AFF30080070008BF00F067F80098B6
:10035000A04218BF0546C419FFF7C8FF056007464D
:10036000F01D20F007004619284600F00AF8B442B4
:1003700008BFF8BDA21B31463868BDE8F84000F060
:1003800033B800210160C0E90110704710207047A8
:100390004FF0000200B5134694469646203922BF1E
:1003A000A0E80C50A0E80C50B1F12001BFF4F7AF69
:1003B000090728BFA0E80C5048BF0CC05DF804EB4B
:1003C000890028BF40F8042B08BF704748BF20F8B9
:1003D000022B11F0804F18BF00F8012B704700006E
:1003E0000048704720010020034640688C460028E2
:1003F00018BF88423CBF03464068F8D318681844C9
:10040000884207D00CF1030020F00700001D411ABC
:10041000521A0146081D0A60FFF709BF10B500F027
:1004200039F8BDE8104000F02FB870477546FFF767
:10043000D7FFAE4605006946534620F007008546C3
:1004400018B020B5FFF7B2FEBDE820404FF000061F
:100450004FF000074FF000084FF0000B21F00701AC
:10046000AC46ACE8C009ACE8C009ACE8C009ACE8EF
:10047000C0098D46704710B50446AFF30080204692
:10048000BDE81040FFF77DBE002801D000F02AB87B
:100490007047000010B5012805D0002103A000F02E
:1004A00027F8012010BD09A1F8E700005349475281
:1004B000544D454D3A204F7574206F662068656134
:1004C00070206D656D6F7279000000003A204865FC
:1004D0006170206D656D6F727920636F72727570D7
:1004E0007465640001491820ABBEFEE726000200D7
:1004F00070B505460C460A2000E06D1C00F011F8AE
:1005000035B128780028F8D102E0641C00F009F821
:1005100014B120780028F8D1BDE870400A20AFF36C
:10052000008008B569468DF800000320ABBE08BD09
:1005300000BFFEE721B1026842F00102026004E060
:1005400002684FF6FE731A40026070470146486821
:1005500080B2704710B50022026847F6F0739A43E4
:100560000C6A8B6823430C6923434C6923438C69D1
:100570002343CC6923434C6A23438C6A23431A43A5
:100580000260CB6843600B6883604B68C36010BD3A
:100590004160704770472DE9F04102460025002672
:1005A000002000230024002791F803C00CF00F0561
:1005B00091F803C00CF0100CBCF1000F03D091F8BF
:1005C00002C04CEA050591F800C0BCF1000F31D023
:1005D000146800202BE04FF0010C0CFA00F3B1F886
:1005E00000C00CEA03069E4220D183004FF00F0C9E
:1005F0000CFA03F7BC4305FA03FC4CEA040491F837
:1006000003C0BCF1280F06D14FF0010C0CFA00FC1E
:10061000C2F814C00AE091F803C0BCF1480F05D13C
:100620004FF0010C0CFA00FCC2F810C0401C082866
:10063000D1D31460B1F800C0BCF1FF0F34DD5468B1
:1006400000202EE000F1080C4FF0010808FA0CF32E
:10065000B1F800C00CEA03069E4221D183004FF09E
:100660000F0C0CFA03F7BC4305FA03FC4CEA040434
:1006700091F803C0BCF1280F05D100F1080C08FA6D
:100680000CF8C2F8148091F803C0BCF1480F07D1F0
:1006900000F1080C4FF0010808FA0CF8C2F81080BD
:1006A000401C0828CED35460BDE8F08141617047FA
:1006B000016170470AB1016100E04161704700BF0C
:1006C000FEE7000010B502210148FFF7F1FF10BD61
:1006D0000008014010B502210148FFF7E7FF10BDF7
:1006E0000008014008B50121042000F0EDF91020B8
:1006F0008DF803000220ADF8000003208DF8020001
:1007000069460448FFF747FF06210248FFF7D0FF7C
:1007100008BD00000008014000BFFEE77047000070
:1007200070B5002100230F22C47804B3154C24684F
:1007300004F4E064C4F5E064210AC1F10403CA4092
:10074000447804FA03F184781440214309010E4CE3
:100750000678A155047804F01F050124AC40057803
:100760006D11AD0005F1E025C5F8004109E0047800
:1007700004F01F050124AC40044D0678761145F8BD
:10078000264070BD0CED00E000E400E080E100E0F8
:1007900002490143024A1160704700000000FA0557
:1007A0000CED00E070B500240EE00021204600F0C2
:1007B000EAF8002504E0002000F054F9681CC5B2F6
:1007C000802DF8DB601CC4B2082CEEDB70BD00008D
:1007D00008B50121082000F077F914208DF80300F6
:1007E00003208DF802004FF48070ADF800006946D8
:1007F0000A48FFF7D0FE4FF40070ADF800006946DC
:100800000648FFF7C8FE012211020448FFF752FF15
:10081000012251020148FFF74DFF08BD000C0140C5
:1008200070B50546002419E080202041284008B119
:10083000012000E0002002464FF400710E48FFF74F
:1008400039FF012211020C48FFF734FF00224FF458
:1008500080710948FFF72EFF601CC4B2082CE3DB4F
:10086000012211020448FFF725FF00224FF4807196
:100870000148FFF71FFF70BD000C014010B50122B9
:1008800051020A48FFF716FF012211020748FFF73D
:1008900011FF00224FF400710448FFF70BFF002204
:1008A0004FF480710148FFF705FF10BD000C0140B7
:1008B00010B500224FF400710648FFF7FBFE01223D
:1008C00011020448FFF7F6FE012251020148FFF72A
:1008D000F1FE10BD000C014070B5002406E00025BB
:1008E00000E06D1CB5F57A7FFBD3641CB4F57A7F0C
:1008F000F5D3FFF76DFFAE2000F0A4F8D52000F08F
:10090000A1F8802000F09EF8A82000F09BF83F207E
:1009100000F098F8D32000F095F8002000F092F84D
:10092000402000F08FF8A12000F08CF8C82000F0E3
:1009300089F8DA2000F086F8122000F083F8812090
:1009400000F080F8CF2000F07DF8D92000F07AF890
:10095000F12000F077F8DB2000F074F8302000F090
:1009600071F8A42000F06EF8A62000F06BF88D203E
:1009700000F068F8142000F065F8AF2000F062F88D
:10098000FFF710FF70BD70B505460C4645F0B0008E
:1009900000F058F8102141EA141000F053F804F068
:1009A0000F0000F04FF870BD2DE9F04105460E46EE
:1009B0001746721ED206110E6A1E5206100EFFF75F
:1009C000E2FF002409E0A7F12001134A02EB011124
:1009D000085D00F047F8601CC4B2082CF3DB721EFF
:1009E000D206110E6A1E012303EB4202D0B2FFF7BA
:1009F000CAFF00240BE0A7F12001074A02EB011215
:100A000004F10801505C00F02DF8601CC4B2082C01
:100A1000F1DBBDE8F08100008C1300082DE9F04106
:100A200007460E461546002407E02A5D3019C1B27C
:100A30003846FFF7B9FF601CC4B2285D0028F4D126
:100A4000BDE8F08110B50446FFF718FF7820FFF7E6
:100A5000E7FE0020FFF7E4FE2046FFF7E1FEFFF788
:100A600027FF10BD10B50446FFF708FF7820FFF7F9
:100A7000D7FE4020FFF7D4FE2046FFF7D1FEFFF758
:100A800017FF10BD7047000029B1064A52690243A2
:100A9000044B5A6104E0034A52698243014B5A6194
:100AA000704700000010024029B1064AD269024393
:100AB000044BDA6104E0034AD2698243014BDA61F4
:100AC000704700000010024029B1064A92690243B3
:100AD000044B9A6104E0034A92698243014B9A6194
:100AE000704700000010024030B5002100220024B1
:100AF00000232D4D6D6805F00C0121B1042905D0AE
:100B0000082923D105E0294D056022E0274D056025
:100B10001FE0254D6D6805F47012234D6D6805F4D6
:100B20008034022505EB92421CB9214D55430560E6
:100B30000BE01D4D6D6805F400351DB11C4D55438E
:100B4000056002E0194D5543056002E0174D056050
:100B500000BF00BF144D6D6805F0F0010909154D87
:100B60006B5C0568DD4045600F4D6D6805F4E06124
:100B7000090A104D6B5C4568DD4085600A4D6D6863
:100B800005F46051C90A0B4D6B5C4568DD40C560DA
:100B9000054D6D6805F44041890B074D6B5CC568D8
:100BA000B5FBF3F5056130BD0010024000127A007C
:100BB00000093D00000000201000002070470000E8
:100BC00070B5044600250BE0615D074800F04EFA61
:100BD00000BF8021044800F080F90028F9D06D1C86
:100BE000605D0028F0D170BD0044004000B591B0B8
:100BF00001214804FFF758FF01210420FFF764FF9B
:100C000001210846FFF740FF18208DF8430004201B
:100C1000ADF8400003208DF8420010A93248FFF7DC
:100C2000BAFC48208DF843000820ADF840000320AE
:100C30008DF8420010A92C48FFF7ADFC4FF4E130CD
:100C40000C900020ADF83C000C20ADF83A000020DC
:100C5000ADF83800ADF83600ADF834000CA92348E3
:100C600000F098F94FF480700490002003900990F0
:100C70001E48001D01900020079005901C4802901E
:100C8000002008908020069000200B904FF44050E8
:100C90000A9001A91748FFF75DFC01211548FFF7ED
:100CA00049FC01224021114800F00EF9012240F2D6
:100CB00024410E4800F048F94FF4A060FFF768FDAA
:100CC00026208DF8000001208DF803008DF801002A
:100CD0008DF802006846FFF723FD0121034800F06C
:100CE000E7F811B000BD00000008014000440040DA
:100CF000200000206C00024010B500F001F810BD8B
:100D00000CB50020019000903348006840F480301A
:100D10003149086000BF3048006800F4003000909E
:100D20000198401C0190009818B90198B0F5A06F87
:100D3000F1D12948006800F4003010B10120009082
:100D400001E0002000900098012843D1234800686A
:100D500040F01000214908600846006820F00300B8
:100D600008600846006840F0020008601A484068C1
:100D7000194948600846406848600846406840F4A1
:100D8000806048600846406820F47C10486008464F
:100D9000406840F4E81048600846006840F0807001
:100DA000086000BF0C48006800F000700028F9D00F
:100DB0000948406820F00300074948600846406839
:100DC00040F00200486000BF0348406800F00C009B
:100DD0000828F9D10CBD000000100240002002409C
:100DE0007047000010B51348006840F00100114939
:100DF000086008464068104908400E4948600846A7
:100E000000680E4908400B4908600846006820F455
:100E1000802008600846406820F4FE0048604FF4D7
:100E20001F008860FFF768FF4FF00060044908600A
:100E300010BD0000001002400000FFF8FFFFF6FEAA
:100E400008ED00E038B540F22441144800F052F8B3
:100E5000012821D1124D1148008800900F48001D33
:100E60000088009000BF00210E48FFF763FB0D488B
:100E7000FFF76CFB0446C4F580700B4908804FF403
:100E800080710848FFF784FB01210648FFF752FBF9
:100E900001200649086000BF38BD00000044004042
:100EA000200000206C0002401C00002014000020E4
:100EB00021B1828942F40052828104E082894DF698
:100EC000FF731A40828170471AB1838A0B43838271
:100ED00002E0838A8B438382704702460020B1F58B
:100EE000007F00D100BF13880B400BB1012000E050
:100EF0000020704770B50246002400230025002022
:100F000040F66A16B14200D100BFC1F3421501F0AC
:100F10001F03012606FA03F3012D02D196893340FF
:100F200006E0022D02D1168A334001E0968A334052
:100F30000C12012606FA04F41688344013B10CB1E1
:100F4000012000E0002070BDF0B50346002400261B
:100F50000025002040F66A17B94200D100BF1846AC
:100F6000C1F3421401F01F06012707FA06F5012C10
:100F700001D10C3004E0022C01D1103000E014301B
:100F80001AB107682F43076002E00768AF430760A4
:100F9000F0BD00002DE9F04786B005460E4600245E
:100FA000A24600BFA1460027B08900B100BF2F466E
:100FB0002C8A4CF6FF700440F08804432C82AC89E4
:100FC0004EF6F3100440B088318908437189084314
:100FD0000443AC81AC8A4FF6FF400440B08904431F
:100FE000AC8201A8FFF780FD1F48874202D1DDF8DF
:100FF00010A001E0DDF80CA0A88900F4004040B189
:101000000AEBCA0000EB0A1031684900B0FBF1F8A6
:1010100007E00AEBCA0000EB0A1031688900B0FB58
:10102000F1F86420B8FBF0F004012009642101FB11
:101030001089A88900F4004040B1322000EBC900BB
:10104000B0FBF1F000F00700044308E0322000EBB1
:1010500009106421B0FBF1F000F00F0004432C8173
:1010600006B0BDE8F087000000380140C1F3080277
:101070008280704700BFFEE770B504460D4604B19C
:101080000DB9002070BD29462046FFF7F7F808B1DA
:10109000012000E0002006463046F3E770B5044624
:1010A0008020FFF795F80546002600200CE0215C23
:1010B0000D2907D0215C0A2904D0235C3146721C1B
:1010C00096B26B54411C88B2215C0029EFD10020FC
:1010D000A855284670BD0000FFF7FEFBFFF786FD10
:1010E00063A0FFF76DFD64A0FFF76AFDFFF7FAFA52
:1010F0000025BBE06248006800B9B7E06148FFF72F
:10110000CDFF0446062D7DD2DFE805F00312263A16
:10111000506C5DA12046FFF7AFFF40B15BA20121FB
:101120000846FFF77BFC5BA0FFF74AFD012598E02E
:101130005CA201210846FFF771FC53A12046FFF78E
:101140009BFF40B15FA201210846FFF767FC61A049
:10115000FFF736FD022584E052A201210846FFF781
:101160005DFC49A12046FFF787FF40B15DA2012148
:101170000846FFF753FC5FA0FFF722FD032570E050
:1011800048A201210846FFF749FC60A12046FFF76D
:1011900073FF20B93CA12046FFF76EFF28B15EA285
:1011A00001210846FFF73AFC04255AE040A201213C
:1011B0000846FFF733FC5EA12046FFF75DFF58B9F4
:1011C0005DA12046FFF758FF58B15DA201210846F6
:1011D000FFF724FC052504E05DA201210846FFF786
:1011E0001DFC3EE0FFF7DEFA5DA201210846FFF795
:1011F00015FC5FA12046FFF73FFF00B352A201217B
:10120000022000E027E0FFF709FC2246012103202D
:10121000FFF704FC57A12046FFF72EFF10B1FFF7A0
:1012200059FA06E054A12046FFF726FF08B1FFF760
:1012300049FA4FF480711348FFF732F80AE03CA1F5
:101240002046FFF719FF28B14CA201210846FFF7FD
:10125000E5FB042505E04BA201210846FFF7DEFB74
:1012600000BF00BF2046FEF7E2FF00BF42E70000DC
:10127000415445300D0A000041540D0A00000000A1
:1012800014000020200000204F4B00004154204F4C
:101290004B00000041542B43574D4F44453D320D08
:1012A0000A000000202020202020202020202020B4
:1012B000202020202020202020202020202020202E
:1012C0000000000041542B43574D4F4445204F4BE5
:1012D0000000000041542B4349504D55583D310DFD
:1012E0000A00000041542B4349504D55583D3120D0
:1012F0004F4B000041542B434950534552564552E1
:101300003D312C383038300D0A0000006E6F2063FC
:1013100068616E676500000041542B434950534596
:10132000525645523D312C38303830204F4B00005A
:101330004641494C00000000434F4E4E4543540087
:10134000636F6E6E6563742073756363657373009A
:10135000636F6E6E656374207761697400000000CE
:1013600057414954204D4553534147450000000023
:1013700049504400310000003200000051554954EA
:1013800000000000574149542E2E2E00000000009E
:10139000000000000000000000000000000000F855
:1013A00000000000000000333000000000100C06B8
:1013B000100C0600000000000000000040C0784053
:1013C000C0784000043F04043F040400007088FC1F
:1013D00008300000001820FF211E0000F008F00077
:1013E000E018000000211C031E211E0000F00888E8
:1013F000700000001E2123241927211010160E0052
:10140000000000000000000000000000000000E0FC
:101410001804020000000007182040000002041811
:10142000E00000000040201807000000404080F06D
:10143000804040000202010F01020200000000F0A3
:10144000000000000101011F010101000000000077
:101450000000000080B070000000000000000000EC
:101460000000000000010101010101010000000075
:10147000000000000030300000000000000000000C
:1014800080601804006018060100000000E01008E9
:101490000810E000000F102020100F00001010F8BE
:1014A000000000000020203F2020000000700808FD
:1014B000088870000030282422213000003008887D
:1014C000884830000018202020110E000000C020A5
:1014D00010F8000000070424243F240000F80888C6
:1014E000880808000019212020110E0000E0108853
:1014F00088180000000F112020110E000038080885
:10150000C83808000000003F000000000070880894
:1015100008887000001C222121221C0000E0100815
:101520000810E0000000312222110F00000000C06E
:10153000C00000000000003030000000000000800B
:1015400000000000000080600000000000008040FB
:101550002010080000010204081020004040404014
:101560004040400004040404040404000008102067
:1015700040800000002010080402010000704808AC
:101580000808F0000000003036010000C030C82814
:10159000E810E0000718272423140B000000C038CF
:1015A000E0000000203C23020227382008F8888849
:1015B00088700000203F202020110E00C030080855
:1015C00008083800071820202010080008F808082C
:1015D0000810E000203F202020100F0008F8888825
:1015E000E8081000203F20202320180008F88888F1
:1015F000E8081000203F200003000000C030080869
:101600000838000007182020221E020008F80800F1
:101610000008F808203F210101213F20000808F8B8
:10162000080800000020203F2020000000000808DB
:10163000F8080800C08080807F00000008F888C09B
:1016400028180800203F20012638200008F808004C
:1016500000000000203F20202020300008F8F80083
:10166000F8F80800203F003F003F200008F830C095
:101670000008F808203F200007183F00E010080885
:101680000810E0000F10202020100F0008F80808B4
:101690000808F000203F210101010000E0100808C7
:1016A0000810E0000F18242438504F0008F88888EC
:1016B00088887000203F2000030C302000708808CC
:1016C000080838000038202121221C00180808F8DA
:1016D000080818000000203F2000000008F808005B
:1016E0000008F808001F202020201F00087888002C
:1016F00000C83808000007380E010000F80800F89C
:101700000008F800033C0700073C03000818688045
:101710008068180820302C03032C30200838C800BB
:10172000C83808000000203F20000000100808080A
:10173000C83808002038262120201800000000FEAC
:10174000020202000000007F40404000000C30C058
:1017500000000000000000010638C0000002020284
:10176000FE000000004040407F0000000000040236
:101770000202040000000000000000000000000061
:101780000000000080808080808080800002020451
:101790000000000000000000000000000000808049
:1017A000808000000019242222223F2008F80080B7
:1017B00080000000003F112020110E00000000807A
:1017C00080800000000E1120202011000000008009
:1017D0008088F800000E112020103F20000080803B
:1017E00080800000001F222222221300008080F04F
:1017F000888888180020203F20200000000080807A
:1018000080808000006B94949493600008F80080BE
:1018100080800000203F210000203F200080989819
:10182000000000000020203F202000000000008079
:101830009898000000C08080807F000008F80000B9
:1018400080808000203F24022D302000000808F80E
:10185000000000000020203F2020000080808080C9
:1018600080808000203F20003F20003F808000805B
:1018700080800000203F210000203F200000808069
:1018800080800000001F202020201F00808000801A
:101890008000000080FFA12020110E0000000080C9
:1018A00080808000000E112020A0FF8080808000BA
:1018B0008080800020203F212000010000008080E7
:1018C000808080000033242424241900008080E0DC
:1018D000808000000000001F2020000080800000A9
:1018E00000808000001F202020103F20808080008A
:1018F0000080808000010E3008060100808000809A
:10190000008080800F300C030C300F0000808000BE
:10191000808080000020312E0E31200080808000E9
:101920000080808080818E70180601000080808099
:10193000808080000021302C222130000000000037
:10194000807C020200000000003F404000000000D8
:10195000FF00000000000000FF0000000002027C09
:10196000800000000040403F000000000006010130
:101970000202040400000000000000009C1900089E
:10198000000000202000000028010008BC19000809
:101990002000002060070000440100080000000053
:1019A00001020304010203040607080902040608F1
:0C19B0000000000000000000000000002B
:04000005080000ED02
:00000001FF
