:020000040800F2
:1000000068060020890100088D050008AD0400087D
:100010008905000843020008CD090008000000001F
:100020000000000000000000000000007D08000843
:10003000470200080000000059080008690900088C
:10004000A3010008A3010008A3010008A301000800
:10005000A3010008A3010008A3010008A3010008F0
:10006000A3010008A3010008A3010008A3010008E0
:10007000A3010008A3010008A3010008A3010008D0
:10008000A3010008A3010008A3010008A3010008C0
:10009000A3010008A3010008A30100084902000809
:1000A000A3010008A3010008A3010008A3010008A0
:1000B000A3010008A3010008A3010008A301000890
:1000C000A3010008A3010008A3010008A301000880
:1000D000A3010008A3010008A3010008A301000870
:1000E000A3010008A3010008A301000800F002F822
:1000F00000F03AF80AA090E8000C82448344AAF188
:100100000107DA4501D100F02FF8AFF2090EBAE885
:100110000F0013F0010F18BFFB1A43F0010318473B
:10012000D0080000F0080000103A24BF78C878C159
:10013000FAD8520724BF30C830C144BF04680C60ED
:10014000704700000023002400250026103A28BF35
:1001500078C1FBD8520728BF30C148BF0B60704739
:100160001FB51FBD10B510BD00F031F81146FFF7E7
:10017000F7FF00F02DFC00F04FF803B4FFF7F2FF9B
:1001800003BC00F057F800000948804709480047C1
:10019000FEE7FEE7FEE7FEE7FEE7FEE7FEE7FEE737
:1001A000FEE7FEE704480549054A064B7047000094
:1001B0006D090008ED0000086800002068060020B6
:1001C000680200206802002070477047704775463B
:1001D00000F02CF8AE4605006946534620F00700B3
:1001E000854618B020B5FFF7DDFFBDE820404FF091
:1001F00000064FF000074FF000084FF0000B21F011
:100200000701AC46ACE8C009ACE8C009ACE8C009DD
:10021000ACE8C0098D46704710B50446AFF30080C6
:100220002046BDE81040FFF7A8BF00000048704717
:100230000400002001491820ABBEFEE726000200A2
:10024000704700BFFEE7704710B54FF4807000F0B4
:100250001BF801280CD10848007808B9012000E0FB
:100260000020054908704FF4807000F007F802E0A4
:1002700000200149087010BD0000002001490860FD
:100280007047000014040140014600200022074B83
:100290001B6803EA0102054B14331B680B4013B1C2
:1002A0000AB1012000E00020704700000004014076
:1002B000002123498279002A3AD00A46126803684D
:1002C0009A430B461A600A1D126803689A430B1D75
:1002D0001A60027911440A6803681A430A60184ACE
:1002E0000832126803689A43154B08331A601A1DC6
:1002F000126803689A43124B0C331A604279102A31
:100300000ED11A1F126803681A430D4B08331A6086
:100310001A1D126803681A43094B0C331A600DE06A
:100320000749427911440A6803681A430A6005E0E4
:10033000027911440A6803689A430A607047000012
:100340000004014030B500228B071C0F0F2303FA75
:1003500004F20B4B8C1053F824309343084C8D104F
:1003600044F8253023468C1053F824308C07240F92
:1003700000FA04F42343024C8D1044F8253030BDBC
:10038000080001402DE9F04102460025002600202A
:1003900000230024002791F803C00CF00F0591F80A
:1003A00003C00CF0100CBCF1000F03D091F802C098
:1003B0004CEA050591F800C0BCF1000F31D014687B
:1003C00000202BE04FF0010C0CFA00F3B1F800C054
:1003D0000CEA03069E4220D183004FF00F0C0CFA6A
:1003E00003F7BC4305FA03FC4CEA040491F803C08C
:1003F000BCF1280F06D14FF0010C0CFA00FCC2F83A
:1004000014C00AE091F803C0BCF1480F05D14FF0C9
:10041000010C0CFA00FCC2F810C0401C0828D1D313
:100420001460B1F800C0BCF1FF0F34DD5468002047
:100430002EE000F1080C4FF0010808FA0CF3B1F8B7
:1004400000C00CEA03069E4221D183004FF00F0C3E
:100450000CFA03F7BC4305FA03FC4CEA040491F8D8
:1004600003C0BCF1280F05D100F1080C08FA0CF804
:10047000C2F8148091F803C0BCF1480F07D100F115
:10048000080C4FF0010808FA0CF8C2F81080401C64
:100490000828CED35460BDE8F08141617047016106
:1004A00070470AB1016100E04161704700BFFEE79B
:1004B0001FB50121042000F0D1F90121084600F008
:1004C000CDF928208DF80F004FF48070ADF80C00A6
:1004D00003208DF80E0003A91348FFF753FF0821EE
:1004E0000020FFF72FFF4FF48070019001208DF85E
:1004F0000A0000208DF8080010208DF8090001A8DE
:10050000FFF7D6FE4FF4A06000F07AF817208DF8C0
:10051000000001208DF803008DF801008DF8020025
:10052000684600F035F81FBD00080140014800781A
:10053000704700000000002010B502210148FFF7BD
:10054000AEFF10BD0008014010B502210148FFF7C1
:10055000A4FF10BD0008014008B50121042000F0EF
:100560007DF910208DF803000220ADF80000032073
:100570008DF8020069460348FFF704FFFFF7DCFF30
:1005800008BD00000008014000BFFEE77047000002
:1005900070B5002100230F22C47804B3154C2468E1
:1005A00004F4E064C4F5E064210AC1F10403CA4024
:1005B000447804FA03F184781440214309010E4C75
:1005C0000678A155047804F01F050124AC40057895
:1005D0006D11AD0005F1E025C5F8004109E0047892
:1005E00004F01F050124AC40044D0678761145F84F
:1005F000264070BD0CED00E000E400E080E100E08A
:1006000002490143024A1160704700000000FA05E8
:100610000CED00E070B500240EE00021204600F053
:10062000EAF8002504E0002000F006F9681CC5B2D5
:10063000802DF8DB601CC4B2082CEEDB70BD00001E
:1006400008B50121082000F009F914208DF80300F5
:1006500003208DF802004FF48070ADF80000694669
:100660000A48FFF78FFE4FF40070ADF800006946AE
:100670000648FFF787FE012211020448FFF711FF29
:10068000012251020148FFF70CFF08BD000C014098
:1006900070B50546002419E080202041284008B1AB
:1006A000012000E0002002464FF400710E48FFF7E1
:1006B000F8FE012211020C48FFF7F3FE00224FF46E
:1006C00080710948FFF7EDFE601CC4B2082CE3DB23
:1006D000012211020448FFF7E4FE00224FF480716A
:1006E0000148FFF7DEFE70BD000C014010B501228D
:1006F00051020A48FFF7D5FE012211020748FFF711
:10070000D0FE00224FF400710448FFF7CAFE002219
:100710004FF480710148FFF7C4FE10BD000C01408A
:1007200010B500224FF400710648FFF7BAFE01220F
:1007300011020448FFF7B5FE012251020148FFF7FC
:10074000B0FE10BD000C014070B5002406E000258D
:1007500000E06D1CB5F57A7FFBD3641CB4F57A7F9D
:10076000F5D3FFF76DFFAE2000F056F8D52000F06E
:1007700053F8802000F050F8A82000F04DF83F20FA
:1007800000F04AF8D32000F047F8002000F044F8C9
:10079000402000F041F8A12000F03EF8C82000F011
:1007A0003BF8DA2000F038F8122000F035F881200C
:1007B00000F032F8CF2000F02FF8D92000F02CF80C
:1007C000F12000F029F8DB2000F026F8302000F0BE
:1007D00023F8A42000F020F8A62000F01DF88D20BA
:1007E00000F01AF8142000F017F8AF2000F014F809
:1007F000FFF710FF70BD70B505460C4645F0B00020
:1008000000F00AF8102141EA141000F005F804F095
:100810000F0000F001F870BD10B50446FFF766FF49
:100820007820FFF735FF0020FFF732FF2046FFF763
:100830002FFFFFF775FF10BD10B50446FFF756FFF9
:100840007820FFF725FF4020FFF722FF2046FFF723
:100850001FFFFFF765FF10BD7047000029B1064A72
:1008600092690243044B9A6104E0034A926982430D
:10087000014B9A617047000000100240704710B5AC
:1008800000F002F810BD00000CB5002001900090AF
:100890003348006840F480303149086000BF304878
:1008A000006800F4003000900198401C019000980E
:1008B00018B90198B0F5A06FF1D12948006800F48B
:1008C000003010B10120009001E00020009000985D
:1008D000012843D12348006840F0100021490860F6
:1008E0000846006820F0030008600846006840F0F1
:1008F000020008601A484068194948600846406884
:1009000048600846406840F4806048600846406897
:1009100020F47C1048600846406840F4E8104860C5
:100920000846006840F08070086000BF0C4800680E
:1009300000F000700028F9D00948406820F003005A
:10094000074948600846406840F00200486000BF20
:100950000348406800F00C000828F9D10CBD0000E5
:1009600000100240002002407047000010B51348FC
:10097000006840F0010011490860084640681049CD
:1009800008400E494860084600680E4908400B4977
:1009900008600846006820F4802008600846406827
:1009A00020F4FE0048604FF41F008860FFF767FFE7
:1009B0004FF000600449086010BD000000100240C4
:1009C0000000FFF8FFFFF6FE08ED00E000BFFEE7C5
:1009D000FFF7BAFEFFF76CFDFFF7BEFD07E0FFF77C
:1009E000A5FD10B9FFF7A8FD01E0FFF7ADFDF6E7A3
:1009F000100A000800000020040000002801000880
:100A0000140A0008040000206406000044010008E5
:040A100000000000E2
:04000005080000ED02
:00000001FF
