:020000040800F2
:1000000078060020890100087103000869030008D0
:100010006D030008430200089D090008000000006D
:10002000000000000000000000000000AD06000815
:100030004702000800000000B50500082508000878
:10004000A3010008A3010008A3010008A301000800
:10005000A3010008A3010008A3010008A3010008F0
:10006000A3010008A3010008A3010008A3010008E0
:10007000A3010008A3010008A3010008A3010008D0
:10008000A3010008A3010008A3010008A3010008C0
:10009000A3010008A3010008A3010008A3010008B0
:1000A000A3010008A3010008A3010008A3010008A0
:1000B000A3010008A3010008A3010008A301000890
:1000C000A3010008A3010008A3010008A301000880
:1000D000A3010008A3010008A3010008A301000870
:1000E000A3010008A3010008A301000800F002F822
:1000F00000F03AF80AA090E8000C82448344AAF188
:100100000107DA4501D100F02FF8AFF2090EBAE885
:100110000F0013F0010F18BFFB1A43F0010318473B
:1001200094080000B4080000103A24BF78C878C1D1
:10013000FAD8520724BF30C830C144BF04680C60ED
:10014000704700000023002400250026103A28BF35
:1001500078C1FBD8520728BF30C148BF0B60704739
:100160001FB51FBD10B510BD00F031F81146FFF7E7
:10017000F7FF00F015FC00F04FF803B4FFF7F2FFB3
:1001800003BC00F057F800000948804709480047C1
:10019000FEE7FEE7FEE7FEE7FEE7FEE7FEE7FEE737
:1001A000FEE7FEE704480549054A064B7047000094
:1001B00029080008ED0000087800002078060020DB
:1001C000780200207802002070477047704775461B
:1001D00000F02CF8AE4605006946534620F00700B3
:1001E000854618B020B5FFF7DDFFBDE820404FF091
:1001F00000064FF000074FF000084FF0000B21F011
:100200000701AC46ACE8C009ACE8C009ACE8C009DD
:10021000ACE8C0098D46704710B50446AFF30080C6
:100220002046BDE81040FFF7A8BF00000048704717
:100230001400002001491820ABBEFEE72600020092
:10024000704700BFFEE770472DE9F04102460025E8
:100250000026002000230024002791F803C00CF0A2
:100260000F0591F803C00CF0100CBCF1000F03D087
:1002700091F802C04CEA050591F800C0BCF1000FEE
:1002800031D0146800202BE04FF0010C0CFA00F381
:10029000B1F800C00CEA03069E4220D183004FF063
:1002A0000F0C0CFA03F7BC4305FA03FC4CEA0404F8
:1002B00091F803C0BCF1280F06D14FF0010C0CFAE5
:1002C00000FCC2F814C00AE091F803C0BCF1480F6A
:1002D00005D14FF0010C0CFA00FCC2F810C0401C14
:1002E0000828D1D31460B1F800C0BCF1FF0F34DD91
:1002F000546800202EE000F1080C4FF0010808FAC5
:100300000CF3B1F800C00CEA03069E4221D1830031
:100310004FF00F0C0CFA03F7BC4305FA03FC4CEA50
:10032000040491F803C0BCF1280F05D100F1080CBA
:1003300008FA0CF8C2F8148091F803C0BCF1480F19
:1003400007D100F1080C4FF0010808FA0CF8C2F8C8
:100350001080401C0828CED35460BDE8F0810AB15B
:10036000016100E04161704700BFFEE700BFFEE7AA
:10037000704770B500240EE00021204600F0E9F837
:10038000002504E0002000F005F9681CC5B2802DAE
:10039000F8DB601CC4B2082CEEDB70BD08B501218F
:1003A000082000F009F914208DF8030003208DF8CF
:1003B00002004FF48070ADF8000069460A48FFF76C
:1003C00043FF4FF40070ADF8000069460648FFF7A0
:1003D0003BFF012211020448FFF7C1FF0122510235
:1003E0000148FFF7BCFF08BD000C014070B5054691
:1003F000002419E080202041284008B1012000E0BD
:10040000002002464FF400710E48FFF7A8FF0122BA
:1004100011020C48FFF7A3FF00224FF48071094836
:10042000FFF79DFF601CC4B2082CE3DB0122110220
:100430000448FFF794FF00224FF480710148FFF752
:100440008EFF70BD000C014010B5012251020A4818
:10045000FFF785FF012211020748FFF780FF002206
:100460004FF400710448FFF77AFF00224FF48071C7
:100470000148FFF774FF10BD000C014010B50022C9
:100480004FF400710648FFF76AFF01221102044889
:10049000FFF765FF012251020148FFF760FF10BD21
:1004A000000C014070B5002406E0002500E06D1C42
:1004B000B5F57A7FFBD3641CB4F57A7FF5D3FFF7EB
:1004C0006DFFAE2000F056F8D52000F053F88020E4
:1004D00000F050F8A82000F04DF83F2000F04AF856
:1004E000D32000F047F8002000F044F8402000F04E
:1004F00041F8A12000F03EF8C82000F03BF8DA20D7
:1005000000F038F8122000F035F8812000F032F8C1
:10051000CF2000F02FF8D92000F02CF8F12000F0C7
:1005200029F8DB2000F026F8302000F023F8A42082
:1005300000F020F8A62000F01DF88D2000F01AF839
:10054000142000F017F8AF2000F014F8FFF711FFA7
:1005500070BD70B505460C4645F0B00000F00AF8D5
:10056000102141EA141000F005F804F00F0000F02B
:1005700001F870BD10B50446FFF766FF7820FFF75D
:1005800035FF0020FFF732FF2046FFF72FFFFFF770
:1005900075FF10BD10B50446FFF756FF7820FFF732
:1005A00025FF4020FFF722FF2046FFF71FFFFFF740
:1005B00065FF10BD7047000029B1064A92690243E9
:1005C000044B9A6104E0034A92698243014B9A61A9
:1005D000704700000010024030B5002100220024C6
:1005E00000232D4D6D6805F00C0121B1042905D0C3
:1005F000082923D105E0294D056022E0274D05603B
:100600001FE0254D6D6805F47012234D6D6805F4EB
:100610008034022505EB92421CB9214D55430560FB
:100620000BE01D4D6D6805F400351DB11C4D5543A3
:10063000056002E0194D5543056002E0174D056065
:1006400000BF00BF144D6D6805F0F0010909154D9C
:100650006B5C0568DD4045600F4D6D6805F4E06139
:10066000090A104D6B5C4568DD4085600A4D6D6878
:1006700005F46051C90A0B4D6B5C4568DD40C560EF
:10068000054D6D6805F44041890B074D6B5CC568ED
:10069000B5FBF3F5056130BD0010024000127A0091
:1006A00000093D00000000201000002070470000FD
:1006B00010B504462146054800F06CF900BF8021C2
:1006C000024800F0EDF80028F9D010BD00380140D4
:1006D00000B585B001218803FFF76EFF01210420DA
:1006E000FFF76AFF18208DF813004FF40070ADF883
:1006F000100003208DF8120004A90E48FFF7A4FD96
:100700004FF4165000900020ADF80C000820ADF812
:100710000A000020ADF80800ADF80600ADF80400AE
:100720006946054800F0CAF80121034800F0ACF81A
:1007300005B000BD000801400038014010B500F0D0
:1007400001F810BD0CB500200190009033480068FE
:1007500040F480303149086000BF3048006800F440
:10076000003000900198401C0190009818B9019841
:10077000B0F5A06FF1D12948006800F4003010B145
:100780000120009001E0002000900098012843D152
:100790002348006840F010002149086008460068BE
:1007A00020F0030008600846006840F0020008607E
:1007B0001A48406819494860084640684860084639
:1007C000406840F4806048600846406820F47C102F
:1007D00048600846406840F4E810486008460068F1
:1007E00040F08070086000BF0C48006800F00070A6
:1007F0000028F9D00948406820F003000749486004
:100800000846406840F00200486000BF0348406866
:1008100000F00C000828F9D10CBD000000100240C7
:10082000002002407047000010B51348006840F0F7
:1008300001001149086008464068104908400E4907
:100840004860084600680E4908400B4908600846A1
:10085000006820F4802008600846406820F4FE000C
:1008600048604FF41F008860FFF768FF4FF000609A
:100870000449086010BD0000001002400000FFF8AD
:10088000FFFFF6FE08ED00E021B1828942F400523C
:10089000828104E082894DF6FF731A40828170479D
:1008A00002460020B1F5007F00D100BF13880B4045
:1008B0000BB1012000E00020704700002DE9F04757
:1008C00086B005460E460024A24600BFA14600277A
:1008D000B08900B100BF2F462C8A4CF6FF7004404F
:1008E000F08804432C82AC894EF6F3100440B088A3
:1008F00031890843718908430443AC81AC8A4FF6BF
:10090000FF400440B0890443AC8201A8FFF764FEB5
:100910001F48874202D1DDF810A001E0DDF80CA0ED
:10092000A88900F4004040B10AEBCA0000EB0A10AD
:1009300031684900B0FBF1F807E00AEBCA0000EBB0
:100940000A1031688900B0FBF1F86420B8FBF0F0C0
:1009500004012009642101FB1089A88900F40040EA
:1009600040B1322000EBC900B0FBF1F000F007000D
:10097000044308E0322000EB09106421B0FBF1F0E1
:1009800000F00F0004432C8106B0BDE8F0870000A2
:1009900000380140C1F308028280704700BFFEE7C3
:1009A000FFF780FDFFF794FE4120FFF781FE00BFB7
:1009B000FEE70000D4090008000000201400000039
:1009C00028010008E809000814000020640600005F
:1009D00044010008000000000102030401020304B6
:0809E0000607080902040608DD
:04000005080000ED02
:00000001FF
